:100000000EC01DC01CC01BC01AC0E7C018C017C05E
:1000100016C015C014C013C012C011C010C01124E6
:100020001FBECFE5D2E0DEBFCDBF20E0A0E6B0E04E
:1000300001C01D92A737B207E1F787D1B3C1E0CF66
:100040008F929F92AF92BF92CF92DF92EF92FF92E8
:100050001F93CF93DF939C0140E050E060E079E094
:100060008DE390E07DD169017A0111E0C1E0D0E03B
:10007000CE0196958795A7019601280F391F411D3E
:10008000511DCA01B9014E01A12CB12CA501940149
:1000900067D1213081E038074105510520F01F5F0D
:1000A000CC0FDD1FE5CF8FEF820F106810BF1CBC97
:1000B0008DBDDF91CF911F91FF90EF90DF90CF909A
:1000C000BF90AF909F908F90089518BA82E087BB41
:1000D00080E794E9B5DF8CE291E090936100809332
:1000E000600090936300809362009093650080931A
:1000F00064009093670080936600909369008093FA
:1001000068008CEB92E090936B0080936A00909370
:100110006D0080936C0008951FBC80B7806180BF24
:10012000089580B78F7E80BF08950F931F93CF935C
:10013000DF9303E010E0C0E0D0E0C330D10509F167
:100140003CF4C130D10589F0C230D105A1F007C01F
:10015000C530D10511F1DCF0C630D10521F1DCDF6D
:10016000809160009091610023C0DBDF809162008C
:10017000909163001DC0D0DF809164009091650074
:1001800017C0CFDF809166009091670011C0C4DF77
:1001900080916800909169000BC0C3DF80916A0074
:1001A00090916B0005C0B8DF80916C0090916D005C
:1001B000A7D0B7DF2196C730D10509F0BECF64E6DE
:1001C00070E080E090E077D00150110909F0B3CFE2
:1001D000DF91CF911F910F9108951F920F920FB64B
:1001E0000F9211242F933F938F939F93AF93BF93BD
:1001F00080916F0090917000A0917100B091720099
:1002000030916E0026E0230F2D3720F40296A11DB9
:10021000B11D05C029E8230F0396A11DB11D209330
:100220006E0080936F0090937000A0937100B09364
:1002300072008091730090917400A0917500B0914C
:1002400076000196A11DB11D8093730090937400F8
:10025000A0937500B0937600BF91AF919F918F915D
:100260003F912F910F900FBE0F901F9018953FB7A1
:10027000F8948091730090917400A0917500B091F2
:10028000760022B708B601FE05C02F3F19F001968F
:10029000A11DB11D3FBF6627782F892F9A2F620FAE
:1002A000711D811D911D43E0660F771F881F991FE7
:1002B0004A95D1F70895CF92DF92EF92FF92CF93B4
:1002C000DF936B017C01D3DFEB01C114D104E104A6
:1002D000F10479F044D0CBDF6C1B7D0B683E73409A
:1002E000A0F381E0C81AD108E108F108C851DC4F39
:1002F000ECCFDF91CF91FF90EF90DF90CF900895FA
:100300008330910528F0880F991F04970197F1F722
:10031000089578948AB582608ABD8AB581608ABD65
:1003200083B7826083BF83B7816083BF89B78260F0
:1003300089BF80B7826080BF80B7816080BF329AFA
:10034000319A3098379A08950895E3DFFDDFBDDED6
:10035000C0E0D0E0EADE2097E9F352DEFBCF08955B
:10036000A1E21A2EAA1BBB1BFD010DC0AA1FBB1FB9
:10037000EE1FFF1FA217B307E407F50720F0A21B2B
:10038000B30BE40BF50B661F771F881F991F1A9498
:1003900069F760957095809590959B01AC01BD01C2
:0803A000CF010895F894FFCF8E
:00000001FF
